:1000000000308A00B6280000FF00030E8301A10023
:100010000A08A0008A010408A2007708A300780853
:10002000A4007908A5007A08A600831383120B1E8A
:100030001B288B182C28220884002308F70024088A
:10004000F8002508F9002608FA0020088A00210E89
:100050008300FF0E7F0E09008A110A1279280830EA
:10006000F80000008711A7112708831687000000F9
:100070008312AA0D0712031C43282716270883168C
:10008000870047288312271227088316870000005D
:100090008312A7152708831687008312871D4E2811
:1000A000F80B312800008711A71127088316870055
:1000B000000083122716270883168700000000001F
:1000C0008312A7152708831687008312871D6628C9
:1000D000F8010000071A78148711A7112708831662
:1000E00087008312071227122708831687008312BE
:1000F00008000130A8001030A90027162708831631
:10010000870000008312A7152708831687000000C8
:100110008312071227122708831687000000831214
:100120008711A71127088316870083122908AA00C0
:100130002F202808AA002F202712270883168700BF
:1001400000008312A7152708831687008312871DD6
:10015000A7280000AB280000271627088316870071
:10016000000083128B108A110A121B2803081F3902
:100170008300FF30A70083161F149F141F159F11C3
:1001800007309C0083138312081083160810831213
:100190000B160B1683160113C03083128B04CF2865
:0201A0006300FA
:02400E00723FFF
:00000001FF
;PIC16F877A
;CRC=E04A  CREATED="21-Nov-17 21:05"
