:1000000001308A00F0290000FF00030E8301A100E7
:100010000A08A0008A010408A2007708A300780853
:10002000A4007908A5007A08A600831383120B1E8A
:100030001B288B182C28220884002308F70024088A
:10004000F8002508F9002608FA0020088A00210E89
:100050008300FF0E7F0E09008A110A12D42940087E
:10006000013A03193A28033A03194428013A0319BB
:100070004E285728C108031D3F280812402808169B
:100080008316081283125728C108031D49288812B5
:100090004A2888168316881283125728C108031D20
:1000A00053280813542808178316081383120800CE
:1000B000BF010130C000C1002F2083160814831235
:1000C000081C64280130BF00831688148312881C22
:1000D0006B280430BF00831608158312081D722890
:1000E0000730BF00831688158312881D79280A30CF
:1000F000BF000130C000C1012F200230C00001301C
:10010000C1002F20831608148312081C892802308E
:10011000BF00831688148312881C90280530BF0006
:10012000831608158312081D97280830BF00831610
:1001300088158312881D9E280B30BF000230C00036
:10014000C1012F200330C0000130C1002F208316D1
:1001500008148312081CAE280330BF0083168814CD
:100160008312881CB5280630BF0083160815831239
:10017000081DBC280930BF00831688158312881D0E
:10018000C3280C30BF000330C000C1012F203F083E
:10019000F80008000830F80000008711A8112808AE
:1001A0008316870000008312C10D0712031CDE288E
:1001B0002816280883168700E228831228122808A8
:1001C0008316870000008312A8152808831687006D
:1001D0008312871DE928F80BCC2800008711A8118D
:1001E0002808831687000000831228162808831623
:1001F0008700000000008312A815280883168700D6
:100200008312871D0129F8010000071A781487114D
:10021000A8112808831687008312071228122808BD
:100220008316870083120800281628088316870083
:1002300000008312A8152808831687000000831287
:1002400007122812280883168700000083128711DE
:10025000A81128088316870083124008C100CA200D
:100260003F08C100CA202812280883168700000012
:100270008312A8152808831687008312871D3E293C
:100280000000422900002816280883168700000075
:1002900083120800BC01BD0158207808BC00BC08CE
:1002A0000319BC293C08BD0001303D022D3E8400ED
:1002B00083130008BE002A303E02F03E0318A22934
:1002C000103EC0290130BF001030C0001421A22907
:1002D0000230BF001030C0001421A2290330BF003B
:1002E0001030C0001421A2290430BF001030C0001B
:1002F0001421A2290530BF001030C0001421A2290A
:100300000630BF001030C0001421A2290730BF0002
:100310001030C0001421A2290830BF001030C000E6
:100320001421A2290930BF001030C0001421A229D5
:10033000BF011030C0001421A2290B30BF001030C3
:10034000C00014215820F8080319BC290530BF004B
:100350003F308400831300080319BB290630F800DE
:10036000F701F70BB129F80BB0297B30F700F70B39
:10037000B729800BAE29A2294C298A110A12D52946
:100380000A148A100A1182079D29A229A229A229EA
:10039000A229A2299829622968296E2974297A2913
:1003A000802986298C2992294A298B108A110A12C0
:1003B0001B28390BDC29DD2900303908033C031CDC
:1003C000ED29A7018B1BA7178B133908C000C101AA
:1003D0002F20A71B8B17B90ADD298A110A121B2AA5
:1003E00003081F398300FF30A80083161F149F14D1
:1003F0001F159F1107309C0083138312A901AA01C6
:10040000AB01AC013130AD003230AE003330AF0063
:100410003430B0003530B1003630B2003730B30080
:100420003830B4003930B5002A30B6003030B7006B
:100430002330B800D9290B160B1683160113C030D0
:0604400083128B0463002F
:02400E00723FFF
:00000001FF
;PIC16F877A
;CRC=72B7  CREATED="21-Nov-17 23:47"
