:1000000002308A00862A0000FF00030E8301A1004F
:100010000A08A0008A010408A2007708A300780853
:10002000A4007908A5007A08A60003170D08031399
:10003000A70003170F080313A80003170C080313E6
:10004000A90003170E080313AA00831383128C3030
:100050008400801D2D288C194E2822088400230836
:10006000F7002408F8002508F9002608FA002708F8
:1000700003178D000313280803178F0003132908A3
:1000800003178C0003132A0803178E00031320089C
:100090008A00210E8300FF0E7F0E09008A110A12CA
:1000A00059280A108A100A11820728340C340134A6
:1000B000063414138C1D5A2813081416AC008C1126
:1000C0008A110A122D28D630EC3A651D0000363010
:1000D00084008313000803197428A530F700F70B78
:1000E0006F280000800B6D2808003D187928081241
:1000F0007A280816831608128312BD1881288812E0
:10010000822888168316881283123D1989280813BD
:100110008A280817831608138312BD19912888139B
:1001200092288817831688130000831209148316F7
:1001300009100000831209108316091083120800A9
:10014000BE018316081600308312081A0130BE045F
:100150008316881600308312881A0130F7000310C6
:10016000F70D7708BE048316081700308312081BAA
:100170000130F700F70DF70DFC30F7057708BE04E6
:100180008316881700308312881B0130F700F70DA3
:10019000F70DF70DF830F7057708BE043E08F800B4
:1001A0000800891083168910081688160817881702
:1001B000831209158316091100008312091483168E
:1001C000091000008312A0207808BD0009108316D2
:1001D000091000008312091483160910000083120D
:1001E000A0207808BC000910831609100812881294
:1001F0000813881383123D0EF700F030F7057708D7
:100200003C04F8007808BC00BC1F08298316D428D9
:10021000BA08031D0D2989100E2989148316891027
:1002200000008312091183160911000083120910BE
:100230008316091083123B0EBC000F30BC053C082E
:10024000BD0075203B080F39BC00BD0075200800BB
:1002500083160812881208138813091089100911CF
:1002600083128910831689108312091183160911CC
:1002700083120910831609100F308312B60067200D
:100280000130AF002F08033C031C4E290330BD0092
:1002900075200530B6006720AF0A42290230BD0044
:1002A0007520AF012F08033C031C5F292F08512044
:1002B000B000BA013008BB00D120AF0A52298A1120
:1002C0000A12AC2A370B6629B8017A293708023C92
:1002D000031D6D294030B8007A293708033C031DFF
:1002E00074291430B8007A293708043C031D7A2990
:1002F0005430B80001303602B80738088038B900E9
:10030000BA013908BB00D120080035080C3A03199E
:100310009029063A03199829023A03199E29A3291C
:10032000BA010130BB00D1200230B6006720A829F5
:100330000130B6000230B7006221A829BA0110309E
:10034000BB00D120A8290130BA003508BB00D1205C
:1003500008000B08AF008B13831603178C170C14BF
:100360000000000083120313AF1B8B1703170C0848
:100370007F390319FD290313AF0003170D08031379
:10038000B00003170F080313B1002F08B500852133
:10039000300803178D000313310803178F00031370
:1003A0000B08B2008B13831603178C170C14000074
:1003B000000083120313B21B8B1703170C0D0E0DD5
:1003C0007F390319FD290313AF0003170D08031329
:1003D000B00003170F080313B1002F08B5008521E3
:1003E000300803178D000313310803178F008D0A9F
:1003F00003198F0A0313A929031703138A110A1279
:10040000BA2A3608F80135020318092A3508F70018
:10041000152AF7010830B700B50DF70D3608770239
:100420000318F700F80DB70B0C2A08002C08633CE2
:100430000319832A2D08B6002E08B70062212C0864
:10044000AF001830B0002030301E3030B1002F081F
:10045000F700AF1F332AF709F70A7708AF002D30EE
:10046000B100B01730142F08B5006430B600012277
:100470007708AF0030307807B2002F08B5000A3097
:10048000B600012230307707B40030307807B3006F
:100490003108F700303032020319522AB014B01B71
:1004A0003015662A3108B2002030B10030303302F6
:1004B00003195E2A3014B01BB014662A031D3014D1
:1004C000031D662A3208B3002030B20030196D2AAD
:1004D000B018702A3018732A762A3108B5008521A1
:1004E0003208B50085213308B50085213408B500F0
:1004F0008521AD0A2D08103C031D812AAE0A01306A
:10050000AD006330AC008A110A12C02A03081F39FB
:100510008300FF30AB00AB152B08831687008312D6
:100520002B162B0883168700103093003630831269
:1005300094008316111463308312AC000730AD00B1
:100540000130AE0083161F149F141F159F11073032
:100550009C008313831228290C30B50085210130BB
:10056000B600B7006221633003178D0000308F00A2
:100570000313A92983168C15C03083128B04162A05
:04058000BF2A63002B
:02400E00723FFF
:00000001FF
;PIC16F877A
;CRC=DA4B  CREATED="22-Nov-17 00:01"
