:1000000002308A00992A0000FF00030E8301A1003C
:100010000A08A0008A010408A2007708A300780853
:10002000A4007908A5007A08A60003170D08031399
:10003000A70003170F080313A80003170C080313E6
:10004000A90003170E080313AA00831383128C3030
:100050008400801D2D288C194E2822088400230836
:10006000F7002408F8002508F9002608FA002708F8
:1000700003178D000313280803178F0003132908A3
:1000800003178C0003132A0803178E00031320089C
:100090008A00210E8300FF0E7F0E09008A110A12CA
:1000A00059280A108A100A11820728340C340134A6
:1000B000063414138C1D5A2813081416AC00AC080F
:1000C000031972282C08083C031C722801302C02EA
:1000D0002F3E840083130008C80083168601831214
:1000E000480886008C118A110A122D28D630EC3A65
:1000F000651D00003E308400831300080319872823
:10010000A530F700F70B82280000800B802808003C
:1001100045188C2808128D28081683160812831299
:10012000C518942888129528881683168812831279
:1001300045199C2808139D28081783160813831255
:10014000C519A4288813A5288817831688130000CA
:1001500083120914831609100000831209108316F4
:10016000091083120800C601831608160030831296
:10017000081A0130C6048316881600308312881AC4
:100180000130F7000310F70D7708C604831608172F
:1001900000308312081B0130F700F70DF70DFC301B
:1001A000F7057708C6048316881700308312881B6A
:1001B0000130F700F70DF70DF70DF830F705770868
:1001C000C6044608F800080089108316891008162E
:1001D000881608178817831209158316091100005D
:1001E000831209148316091000008312B3207808C3
:1001F000C500091083160910000083120914831624
:10020000091000008312B3207808C4000910831677
:10021000091008128812081388138312450EF7007C
:10022000F030F70577084404F8007808C400C41FCC
:100230001B298316E728C208031D202989102129BC
:10024000891483168910000083120911831609117D
:10025000000083120910831609108312430EC40094
:100260000F30C4054408C500882043080F39C40076
:10027000C500882008008316081288120813881306
:1002800009108910091183128910831689108312AD
:1002900009118316091183120910831609100F30F2
:1002A0008312BE007A200130B7003708033C031CDC
:1002B00061290330C50088200530BE007A20B70AC6
:1002C00055290230C5008820B7013708033C031CBC
:1002D000722937085120B800C2013808C300E42051
:1002E000B70A65298A110A12CF2A3F0B7929C00162
:1002F0008D293F08023C031D80294030C0008D2914
:100300003F08033C031D87291430C0008D293F0896
:10031000043C031D8D295430C00001303E02C0074B
:1003200040088038C100C2014108C300E420080031
:100330003D080C3A0319A329063A0319AB29023ADE
:100340000319B129B629C2010130C300E4200230EB
:10035000BE007A20BB290130BE000230BF007521EB
:10036000BB29C2011030C300E420BB290130C20008
:100370003D08C300E42008000B08B7008B13831668
:1003800003178C170C140000000083120313B71B13
:100390008B1703170C087F390319102A0313B700B2
:1003A00003170D080313B80003170F080313B90050
:1003B0003708BD009821380803178D00031339084A
:1003C00003178F0003130B08BA008B138316031750
:1003D0008C170C140000000083120313BA1B8B1738
:1003E00003170C0D0E0D7F390319102A0313B700E4
:1003F00003170D080313B80003170F080313B90000
:100400003708BD009821380803178D0003133908F9
:1004100003178F008D0A03198F0A0313BC290317D2
:1004200003138A110A12DD2A3E08F8013D0203185F
:100430001C2A3D08F700282AF7010830BF00BD0D2F
:10044000F70D3E0877020318F700F80DBF0B1F2ABF
:1004500008002C08633C0319962A2D08BE002E08BC
:10046000BF0075212C08B7001830B8002030381EA6
:100470003030B9003708F700B71F462AF709F70AE6
:100480007708B7002D30B900B81738143708BD0009
:100490006430BE0014227708B70030307807BA0005
:1004A0003708BD000A30BE00142230307707BC0088
:1004B00030307807BB003908F70030303A020319B2
:1004C000652AB814B81B3815792A3908BA002030C3
:1004D000B90030303B020319712A3814B81BB81424
:1004E000792A031D3814031D792A3A08BB002030ED
:1004F000BA003819802AB818832A3818862A892A17
:100500003908BD0098213A08BD0098213B08BD007C
:1005100098213C08BD009821AD0A2D08103C031D10
:10052000942AAE0A0130AD006330AC008A110A1281
:10053000E32A03081F398300FF30AB00AB152B08FB
:100540008316870083122B162B0883168700103022
:100550009300363083129400831611146330831293
:10056000AC000730AD000130AE0083161F149F149D
:100570001F159F1107309C00831301308312AF00B9
:100580000230B0000430B1000830B2001030B300C7
:100590002030B4004030B5008030B6003B290C302C
:1005A000BD0098210130BE00BF00752176300317D1
:1005B0008D0000308F000313BC2983168C15C030CA
:0A05C00083128B04292AE22A63004B
:02400E00723FFF
:00000001FF
;PIC16F877A
;CRC=DE65  CREATED="22-Nov-17 00:26"
