:1000000002308A00BB2A0000FF00030E8301A1001A
:100010000A08A0008A010408A2007708A300780853
:10002000A4007908A5007A08A60003170D08031399
:10003000A70003170F080313A80003170C080313E6
:10004000A90003170E080313AA00831383128C3030
:100050008400801D2D288C194E2822088400230836
:10006000F7002408F8002508F9002608FA002708F8
:1000700003178D000313280803178F0003132908A3
:1000800003178C0003132A0803178E00031320089C
:100090008A00210E8300FF0E7F0E09008A110A12CA
:1000A0005D280A108A100A11820728340C340134A2
:1000B0000634D630EC3A651D000014138C1D5E2802
:1000C00013081416AC00AC08031976282C08083C59
:1000D000031C762801302C022F3E84008313000875
:1000E000C800831686018312480886008C118A1185
:1000F0000A122D28D630EC3A651D00003E308400EF
:100100008313000803198B28A530F700F70B862806
:100110000000800B842808004518902808129128B8
:100120000816831608128312C51898288812992871
:1001300088168316881283124519A0280813A1284F
:100140000817831608138312C519A8288813A9282D
:100150008817831688130000831209148316091068
:100160000000831209108316091083120800C601CB
:100170008316081600308312081A0130C60483164D
:10018000881600308312881A0130F7000310F70D2B
:100190007708C6048316081700308312081B013045
:1001A000F700F70DF70DFC30F7057708C604831646
:1001B000881700308312881B0130F700F70DF70D08
:1001C000F70DF830F7057708C6044608F800080070
:1001D0008910831689100816881608178817831245
:1001E00009158316091100008312091483160910DA
:1001F00000008312B7207808C50009108316091083
:100200000000831209148316091000008312B7201E
:100210007808C40009108316091008128812081300
:1002200088138312450EF700F030F7057708440471
:10023000F8007808C400C41F1F298316EB28C208E1
:10024000031D24298910252989148316891000008B
:1002500083120911831609110000831209108316F5
:1002600009108312430EC4000F30C4054408C500B2
:100270008C2043080F39C400C5008C200800831669
:1002800008128812081388130910891009118312A3
:10029000891083168910831209118316091183129C
:1002A0000910831609100F308312BE007E20013022
:1002B000B7003708033C031C65290330C5008C20B8
:1002C0000530BE007E20B70A59290230C5008C20B7
:1002D000B7013708033C031C762937085120B800C2
:1002E000C2013808C300E820B70A692908003F0B9B
:1002F0007B29C0018F293F08023C031D8229403021
:10030000C0008F293F08033C031D89291430C00019
:100310008F293F08043C031D8F295430C000013051
:100320003E02C00740088038C100C2014108C30036
:10033000E82008003D080C3A0319A529063A0319DC
:10034000AD29023A0319B329B829C2010130C3000B
:10035000E8200230BE007E20BD290130BE00023000
:10036000BF007721BD29C2011030C300E820BD299C
:100370000130C2003D08C300E82008000B08B700A8
:100380008B13831603178C170C14000000008312C4
:100390000313B71B8B1703170C087F390319122A95
:1003A0000313B70003170D080313B80003170F0852
:1003B0000313B9003708BD009A21380803178D00D0
:1003C0000313390803178F0003130B08BA008B13AC
:1003D000831603178C170C140000000083120313FC
:1003E000BA1B8B1703170C0D0E0D7F390319122A38
:1003F0000313B70003170D080313B80003170F0802
:100400000313B9003708BD009A21380803178D007F
:100410000313390803178F008D0A03198F0A03137A
:10042000BE290317031308003E08F8013D02031814
:100430001C2A3D08F700282AF7010830BF00BD0D2F
:10044000F70D3E0877020318F700F80DBF0B1F2ABF
:1004500008002C08633C03199E2A2D08BE002E08B4
:10046000BF0077212C08B7001830B8002030381EA4
:100470003030B9003708F700B71F462AF709F70AE6
:100480007708B7002D30B900B81738143708BD0009
:100490006430BE0014227708B70030307807BA0005
:1004A0003708BD000A30BE00142230307707BC0088
:1004B00030307807BB003908F70030303A020319B2
:1004C000652AB814B81B3815792A3908BA002030C3
:1004D000B90030303B020319712A3814B81BB81424
:1004E000792A031D3814031D792A3A08BB002030ED
:1004F000BA003819802AB818832A3818862A892A17
:100500003908BD009A213A08BD009A213B08BD0078
:100510009A213C08BD009A21AD0A2C080A3C031917
:10052000942A2C080B3C0319AD0A2D08103C031D1E
:100530009C2AAE0A0130AD006330AC00831608146B
:1005400083120818B82A3F210C30BD009A210130CF
:10055000BE00BF007721593003178D0000308F0097
:100560000313BE216330AC000730AD000130AE0094
:100570008A110A12052B03081F398300FF30AB00D4
:10058000AB152B088316870083122B162B088316B6
:1005900087001030930036308312940083161114B4
:1005A00063308312AC000730AD000130AE0083161B
:1005B0001F149F141F159F1107309C0083130130D7
:1005C0008312AF000230B0000430B1000830B20036
:1005D0001030B3002030B4004030B5008030B60099
:1005E0003F210C30BD009A210130BE00BF007721B1
:1005F0007A3003178D0000308F000313BE2183165D
:0E0600008C15C03083128B04292A042B630052
:02400E00723FFF
:00000001FF
;PIC16F877A
;CRC=B6D9  CREATED="22-Nov-17 00:47"
