:1000000000308A005E280000FF00030E8301A1007B
:100010000A08A0008A010408A2007708A300780853
:10002000A4007908A5007A08A600831383128C30F7
:100030008400801D1D288C192E2822088400230886
:10004000F7002408F8002508F9002608FA0020081F
:100050008A00210E8300FF0E7F0E09008A110A120A
:10006000312814138C1D322813081416A800280BED
:100070005A2808148316081004308312A900FA3095
:10008000AA002A308400831300080319542806307C
:10009000F800F701F70B4A28F80B49287B30F700E6
:1000A000F70B5028800B4728A90B3F280810831610
:1000B000081083128C118A110A121D2803081F3997
:1000C0008300FF30A700A715270883168700831237
:1000D00027162708831687001030930036308312C6
:1000E0009400831611141F149F141F159F110730BD
:1000F0009C00831388018312880183168C15C030FD
:0801000083128B0482286300C6
:02400E00723FFF
:00000001FF
;PIC16F877A
;CRC=9EE7  CREATED="21-Nov-17 21:07"
